{
  "address": "0x31430f91dE6d701ac3d975FF75C966Fa9EdEd21a",
  "abi": [
    {
      "inputs": [
        {
          "internalType": "uint256",
          "name": "_tokenId",
          "type": "uint256"
        }
      ],
      "name": "available",
      "outputs": [
        {
          "internalType": "bool",
          "name": "",
          "type": "bool"
        }
      ],
      "stateMutability": "view",
      "type": "function"
    },
    {
      "inputs": [],
      "name": "getPrice",
      "outputs": [
        {
          "internalType": "uint256",
          "name": "",
          "type": "uint256"
        }
      ],
      "stateMutability": "view",
      "type": "function"
    },
    {
      "inputs": [
        {
          "internalType": "uint256",
          "name": "_tokenId",
          "type": "uint256"
        }
      ],
      "name": "purchase",
      "outputs": [],
      "stateMutability": "payable",
      "type": "function"
    },
    {
      "inputs": [
        {
          "internalType": "uint256",
          "name": "",
          "type": "uint256"
        }
      ],
      "name": "tokens",
      "outputs": [
        {
          "internalType": "address",
          "name": "",
          "type": "address"
        }
      ],
      "stateMutability": "view",
      "type": "function"
    }
  ],
  "transactionHash": "0x5a740fd13d49858625a5482399a22db2c5ab6c51cc7312b62789da5a1047c6ab",
  "args": [],
  "numDeployments": 1,
  "solcInputHash": "02cbeb0d819d24bf858c1e6bf0a4fc38",
  "bytecode": "0x608060405267016345785d8a000060015534801561001c57600080fd5b5061042b8061002c6000396000f3fe60806040526004361061003f5760003560e01c80634f64b2be1461004457806396e494e81461008157806398d5fdca146100be578063efef39a1146100e9575b600080fd5b34801561005057600080fd5b5061006b6004803603810190610066919061028f565b610105565b60405161007891906102fd565b60405180910390f35b34801561008d57600080fd5b506100a860048036038101906100a3919061028f565b610138565b6040516100b59190610333565b60405180910390f35b3480156100ca57600080fd5b506100d36101b2565b6040516100e0919061035d565b60405180910390f35b61010360048036038101906100fe919061028f565b6101bc565b005b60006020528060005260406000206000915054906101000a900473ffffffffffffffffffffffffffffffffffffffff1681565b60008073ffffffffffffffffffffffffffffffffffffffff1660008084815260200190815260200160002060009054906101000a900473ffffffffffffffffffffffffffffffffffffffff1673ffffffffffffffffffffffffffffffffffffffff16036101a857600190506101ad565b600090505b919050565b6000600154905090565b6001543414610200576040517f08c379a00000000000000000000000000000000000000000000000000000000081526004016101f7906103d5565b60405180910390fd5b3360008083815260200190815260200160002060006101000a81548173ffffffffffffffffffffffffffffffffffffffff021916908373ffffffffffffffffffffffffffffffffffffffff16021790555050565b600080fd5b6000819050919050565b61026c81610259565b811461027757600080fd5b50565b60008135905061028981610263565b92915050565b6000602082840312156102a5576102a4610254565b5b60006102b38482850161027a565b91505092915050565b600073ffffffffffffffffffffffffffffffffffffffff82169050919050565b60006102e7826102bc565b9050919050565b6102f7816102dc565b82525050565b600060208201905061031260008301846102ee565b92915050565b60008115159050919050565b61032d81610318565b82525050565b60006020820190506103486000830184610324565b92915050565b61035781610259565b82525050565b6000602082019050610372600083018461034e565b92915050565b600082825260208201905092915050565b7f54686973204e465420636f73747320302e312065746865720000000000000000600082015250565b60006103bf601883610378565b91506103ca82610389565b602082019050919050565b600060208201905081810360008301526103ee816103b2565b905091905056fea26469706673582212204a045f5b7cdbf25f1e6dab9c2f23a5426a3e405e0610879ab2524f494bd7968d64736f6c63430008110033",
  "devdoc": {
    "kind": "dev",
    "methods": {
      "available(uint256)": {
        "details": "available() checks whether the given tokenId has already been sold or not",
        "params": {
          "_tokenId": "- the tokenId to check for"
        }
      },
      "getPrice()": {
        "details": "getPrice() returns the price of one NFT"
      },
      "purchase(uint256)": {
        "details": "purchase() accepts ETH and marks the owner of the given tokenId as the caller address",
        "params": {
          "_tokenId": "- the fake NFT token Id to purchase"
        }
      }
    },
    "stateVariables": {
      "nftPrice": {
        "details": "Set the purchase price for each Fake NFT"
      },
      "tokens": {
        "details": "Maintain a mapping of Fake TokenID to Owner addresses"
      }
    },
    "version": 1
  },
  "userdoc": {
    "kind": "user",
    "methods": {},
    "version": 1
  },
  "storageLayout": {
    "storage": [
      {
        "astId": 533,
        "contract": "contracts/FakeNFTMarketplace.sol:FakeNFTMarketplace",
        "label": "tokens",
        "offset": 0,
        "slot": "0",
        "type": "t_mapping(t_uint256,t_address)"
      },
      {
        "astId": 537,
        "contract": "contracts/FakeNFTMarketplace.sol:FakeNFTMarketplace",
        "label": "nftPrice",
        "offset": 0,
        "slot": "1",
        "type": "t_uint256"
      }
    ],
    "types": {
      "t_address": {
        "encoding": "inplace",
        "label": "address",
        "numberOfBytes": "20"
      },
      "t_mapping(t_uint256,t_address)": {
        "encoding": "mapping",
        "key": "t_uint256",
        "label": "mapping(uint256 => address)",
        "numberOfBytes": "32",
        "value": "t_address"
      },
      "t_uint256": {
        "encoding": "inplace",
        "label": "uint256",
        "numberOfBytes": "32"
      }
    }
  }
}